0820230510100600000105304BEATRIZ                  BENITEZ                  DELGADO                  F00000000          047S
0820230510100600000105304GORKA                    MEANA                    MARCOS                   M00000000          062S
0820230510100600000105304JAVIER                   RAMIREZ                  ASENSIO                  M00000000          062S
0820230510100600000105304JUAN                     MUÑOZ                    BARTOLOMÉ                M00000000          042S
0820230510100600000200800AITOR                    BEZARES                  VARGAS                   M00000000          006N
0820230510100600000200800IÑAKI XABIER             ULLIBARRI                URRACA                   M00000000          006N
0820230510100600000200800RAQUEL                   ROMAN                    HERRAN                   F00000000          014N
0820230510100600000301100IGOR                     SALAZAR                  OCHOA                    M00000000          011N
0820230510100600000602901IÑAKI                    ARRIEN                   TORNOS                   M00000000          015N
0820230510100600000602901JOSÉ MANUEL              GINÉS                    MURIEL                   M00000000          029N
0820230510100600000602901MÓNICA                   MIGUEL                   IZQUIERDO                F00000000          020N
0820230510100600000602901RICARDO                  PURAS                    IZQUIERDO                M00000000          029S
0820230510100600000602901ROSA                     MARCOS                   ÁLVAREZ                  F00000000          026N
0820230510101900000107505ESTHER                   CALLEJA                  RODRIGUEZ                F00000000          031S
0820230510101900000107505GAIZKA                   MARAÑON                  LATORRE                  M00000000          073S
0820230510101900000107505JOSEBA                   FERNANDEZ                CALLEJA                  M00000000          069S
0820230510101900000107505MARIA DEL MAR            CALLEJA                  MARAÑON                  F00000000          068S
0820230510101900000107505OSCAR                    CALLEJA                  VILLATE                  M00000000          062S
0820230510101900000301900JOSE ESTANISLAO          PORTO                    SANCHEZ                  M00000000          019N
0820230510101900000601200EKHI                     FERRER                   ALONSO                   M00000000          008N
0820230510101900000601200MARÍA PAZ                FERNÁNDEZ                CALLEJA                  F00000000          017N
0820230510101900000601200SANTIAGO                 RODRÍGUEZ                GARZO                    M00000000          011N
0820230510101900000601200VICTORIA                 TRISTÁN                  HORTAS                   F00000000          014N
0820230510103000000104602Mª BELEN                 ARECHAGA                 ALEGRIA                  F00000000          050S
0820230510103000000104602Mª CRUZ                  LEGARDA                  MARQUINEZ                F00000000          043N
0820230510103000000104602Mª SOLEDAD               BEDIA                    OLABE                    F00000000          045N
0820230510103000000104602OSCAR JOSE               FERNÁNDEZ                AGUIRREGABIRIA           M00000000          046S
0820230510103000000205103ANA MARIA                BAROJA                   MARTINEZ DE ALEGRIA      F00000000          026N
0820230510103000000205103IRATI                    RUFRANCOS                SANCHEZ                  F00000000          046S
0820230510103000000205103OSCAR                    KORRES                   LARRAURI                 M00000000          058S
0820230510103000000205103UNAI                     IBAÑEZ                   GUERENABARRENA           M00000000          020N
0820230510103000000205103URTZI                    GAINTZARAIN              GONZALEZ DE DURANA       M00000000          055S
0820230510103000000300400ESTIBALIZ                CANTO                    LLORENTE                 F00000000          004N
0820230510103000000600500ALFREDO                  GARCÍA                   PÉREZ DE LOZA            M00000000          003N
0820230510103000000600500DANIEL                   MARTINEZ                 GONZALEZ                 M00000000          003N
0820230510103000000600500ESMERALDA                NARVÁEZ                  PINEDA                   F00000000          003N
0820230510103000000600500JUAN CARLOS              MARTÍNEZ                 GAINZARAIN               M00000000          012N
0820230510103400000106104IGNACIO                  GALLO                    HERRERA                  M00000000          061S
0820230510103400000106104INMACULADA               LAREDO                   FUENTES                  F00000000          066S
0820230510103400000106104IRATXE                   DIAZ DE GUEREÑU          AGUILLO                  F00000000          051S
0820230510103400000106104JON                      PEREZ                    GARCIA                   M00000000          066S
0820230510103400000305101MARÍA CRISTINA           GONZALEZ                 CALVAR                   F00000000          051S
0820230510103400000600200DIEGO LEON               GUALLART                 ARDANUY                  M00000000          003N
0820230510103400000600200MARÍA CARMEN             HERNÁNDEZ                ALEGRÍA                  F00000000          003N
0820230510103400000600200MIGUEL                   SÁNCHEZ                  OCHARAN                  M00000000          001N
0820230510103400000600200PALOMA                   MORALES                  PERAL                    F00000000          002N
0820230510103900000106304ASIER                    ERASO                    PELAEZ                   M00000000          058S
0820230510103900000106304EUGENIO                  JIMENEZ                  IBAÑEZ                   M00000000          053S
0820230510103900000106304JOSE MARIA               ELVIRA                   CEBALLOS                 M00000000          068S
0820230510103900000106304MARAVILLAS               GARCÍA                   DÍAZ DE CERIO            F00000000          073S
0820230510103900000205301CLAUDIA CECILIA          SOLIZ                    GAMBOA                   F00000000          026N
0820230510103900000205301GORKA                    SANTAMARIA               JIMENEZ                  M00000000          042N
0820230510103900000205301ION                      GARCIA DE OLANO          DIAZ DE CERIO            M00000000          075S
0820230510103900000205301ITZIAR                   MARAURI                  ARANBURU                 F00000000          030N
0820230510103900000205301JUAN IGNACIO             MARAURI                  MARTINEZ DE RITUERTO     M00000000          042N
0820230510103900000304200DANIEL                   SENDEROS                 ORAA                     M00000000          042N
0820230510103900000600700DANIEL                   BLANCO                   ZORZANO                  M00000000          013N
0820230510103900000600700JOSE MARÍA               BOBEDA                   ROT                      M00000000          006N
0820230510103900000600700MARÍA ICIAR              LAMARAIN                 CENITAGOYA               F00000000          006N
0820230510103900000600700MARINELA                 SÁNCHEZ                  GARCÍA                   F00000000          004N
0820230510104100000105803AITOR                    ALONSO                   RUIZ DE URRA             M00000000          060S
0820230510104100000105803EMILIO                   RAMOS                    MARTINEZ DE LAPISCINA    M00000000          057S
0820230510104100000105803LAURA                    MAJUELO                  NAJERA                   F00000000          055N
0820230510104100000105803MIKEL                    FERNANDEZ                CALLEJA                  M00000000          061S
0820230510104100000300600JAVIER                   MARDONES                 GOMEZ MARAÑON            M00000000          006N
0820230510104100000605402ALEJANDRO IBAI           SUAREZ                   ROBLEDO                  M00000000          043N
0820230510104100000605402ANTONIO                  GUZMÁN                   BLANCO                   M00000000          055N
0820230510104100000605402JAVI                     MAJUELO                  ORTIZ DE VIÑASPRE        M00000000          058S
0820230510104100000605402MIGUEL ÁNGEL             FERNÁNDEZ                GONZÁLEZ                 M00000000          063S
0820230510104900000105604GARBIÑE                  MEDINA                   PÉREZ DE NANCLARES       F00000000          056S
0820230510104900000105604JUAN CARLOS              MEDINA                   MARTÍNEZ                 M00000000          062S
0820230510104900000105604KLEMENTE                 PÉREZ DE NANCLARES       ITURRALDE                M00000000          055S
0820230510104900000105604VANESA                   MARTÍNEZ                 FERRERAS                 F00000000          052S
0820230510104900000203501EDUARDO                  LOMA                     VADILLO                  M00000000          035N
0820230510104900000203501JOSEBA                   ANGULO                   GONZALEZ                 M00000000          033N
0820230510104900000203501LANDER                   MAGUREGUI                RUIZ-HIERRO              M00000000          040S
0820230510104900000203501UNAI                     JIMENEZ                  CELADA                   M00000000          035N
0820230510104900000300400PABLO                    DE ORAA                  OLEAGA                   M00000000          004N
0820230510104900000600300JUAN CRUZ                ITURRICHA                IBÁÑEZ                   M00000000          003N
0820230510104900000600300MANOEL BORJA             DE BRITTO                PADILLA                  M00000000          003N
0820230510104900000600300MARIA                    ALDECOA                  ACHA                     F00000000          003N
0820230510104900000600300MIGUEL ÁNGEL             DEVESA                   ZARAGOCI                 M00000000          003N
0820230510105600000105904IKER                     PRADO                    BELTRAN DE HEREDIA       M00000000          062S
0820230510105600000105904JOSE MIGUEL              QUINTANA                 SAN VICENTE              M00000000          059S
0820230510105600000105904LARRAITZ                 WALIÑO                   ARANA                    F00000000          060S
0820230510105600000105904RUFINO                   BERNAL                   SAN VICENTE              M00000000          058S
0820230510105600000204001ALVARO CARLOS            LOPEZ DE ARBINA          IBAÑEZ                   M00000000          042N
0820230510105600000204001GREGORIO                 PEREZ DE EULATE          CHASCO                   M00000000          038N
0820230510105600000204001JOSU ANDONI              MURGUIALDAY              BARRENA "KARPIN"         M00000000          041N
0820230510105600000204001SERGIO                   NOVOA                    ARRONIZ                  M00000000          042S
0820230510105600000300100JULIO                    RODRIGUEZ                CABEZAS                  M00000000          001N
0820230510105600000600300ANTÓN                    SÁENZ DE SANTA MARÍA     MUNIATEGUI               M00000000          004N
0820230510105600000600300CAROLINA                 ÁLVAREZ                  MOLINUEVO                F00000000          003N
0820230510105600000600300DIEGO                    GUERRERO                 VIVAR                    M00000000          003N
0820230510105600000600300PABLO                    HERMOSA                  VIDALLO                  M00000000          003N
0820230510106000000108604ALFREDO                  ARGUIJO                  ECHAZARRETA              M00000000          096S
0820230510106000000108604ELISA                    VAZQUEZ                  FERNANDEZ                F00000000          090S
0820230510106000000108604SABINA                   GONZALEZ                 OLAZAGOITIA              F00000000          089S
0820230510106000000108604TAMARA                   CASTAÑOS                 VERANO                   F00000000          072S
0820230510106000000304100GORKA                    ARGUIJO                  IZCO                     M00000000          041N
0820230510106000000605801ARANCHA                  MORALES                  PERAL                    F00000000          058N
0820230510106000000605801JORGE                    IBARRONDO                BAJO                     M00000000          059S
0820230510106000000605801PILAR                    CALVO                    ORIVE                    F00000000          058N
0820230510106000000605801RAÚL                     HIDALGO                  PÉREZ                    M00000000          058N
0820230510106100000209405ANA MARIA                SAEZ DE VICUÑA           GARCIA DE ANDOIN         F00000000          064S
0820230510106100000209405CELSA                    MARTINEZ DE ALBENIZ      LOPEZ DE ARBINA          F00000000          076S
0820230510106100000209405GUSTAVO FERNANDO         FERNANDEZ                VILLATE                  M00000000          084S
0820230510106100000209405JOSE                     SANCHEZ                  DONCEL                   M00000000          067S
0820230510106100000209405LOURDES                  LEKUONA                  LABURU                   F00000000          086S
0820230510106100000303400IKER                     MIRANDA                  SERRANO                  M00000000          034N
0820230510106100000601400INGUEBORG ELEONORE       LERCH                    RUEDA                    F00000000          002N
0820230510106100000601400ISABEL                   AGUAYO                   MARTÍNEZ DE OSABA        F00000000          022N
0820230510106100000601400MIGUEL ÁNGEL             GÓMEZ DE ARTECHE         EZQUERRA                 M00000000          018N
0820230510106100000601400OIER                     BARTOLOMÉ                SAN PRUDENCIO            M00000000          016N
0820230510201300000602601ANDRES                   AROCAS                   MARTINEZ                 M00000000          031S
0820230510201300000602601MARIA DEL CARMEN         GONZALEZ                 RODRIGUEZ                F00000000          029N
0820230510201300000602601RAQUEL                   VELASCO                  BURRIEL                  F00000000          023N
0820230510201300000602601TERESA                   MARTINEZ                 FERNANDEZ                F00000000          023N
0820230510201300000701400ELÍAS                    JIMÉNEZ                  SAEZ                     M00000000          025N
0820230510201300000701400JOSEFA                   GREGORIO                 TORRES                   F00000000          008N
0820230510201300000701400JUAN ANTONIO             GIL                      GARCÍA                   M00000000          020N
0820230510201300000701400PEDRO                    JIMÉNEZ                  NAVARRO                  M00000000          000N
0820230510201300000701400RAFAEL                   GIL                      VALLES                   M00000000          005N
0820230510201300003005404CÁNDIDO                  DEL VALLE                AROCAS                   M00000000          053S
0820230510201300003005404FIDEL                    ALDUDO                   SANZ                     M00000000          049S
0820230510201300003005404FRANCISCO                NAVARRO                  GARCÍA                   M00000000          062S
0820230510201300003005404NATIVIDAD                PÉREZ                    GARCÍA                   F00000000          053S
0820230510202800000603601ANGEL                    MELERO                   FERNANDEZ                M00000000          038S
0820230510202800000603601MIGUEL ANGEL             PEREZ                    ATENCIA                  M00000000          034N
0820230510202800000603601ROBERTO                  NOVA                     MARTINEZ                 M00000000          037N
0820230510202800003005904FLORENCIA                LOZANO                   ROMERO                   F00000000          057S
0820230510202800003005904LAURA                    LOZANO                   BARCOS                   F00000000          047S
0820230510202800003005904MARIA DEL CARMEN         LINARES                  BERMUDEZ                 F00000000          051S
0820230510202800003005904MARIA ISABEL             LOZANO                   CASTILLO                 F00000000          033N
0820230510202800003005904SILVIA MARIA             LOZANO                   ROMERO                   F00000000          050S
0820230510204700000608505AMPARO                   INIESTA                  CUERDA                   F00000000          070S
0820230510204700000608505INMACULADA               ESPARCIA                 MARTINEZ                 F00000000          067S
0820230510204700000608505NARCISO                  SANCHEZ                  ESCRIBANO                M00000000          072S
0820230510204700000608505NICASIO                  BELMONTE                 GALLEGO                  M00000000          061S
0820230510204700000608505PEDRO                    INIESTA                  CUERDA                   M00000000          073S
0820230510204700003002400ANTONIO                  TEVAR                    CARRASCO                 M00000000          024N
0820230510204700003002400EUSEBIO                  GIL                      GÓMEZ                    M00000000          026N
0820230510204700003002400ROSANA                   TEBAR                    SÁNCHEZ                  F00000000          024N
0820230510204700003002400SERGIO                   GIL                      PIQUERAS                 M00000000          024N
0820230510206600000610504ESTHER                   DE FEZ                   GONZALEZ                 F00000000          103S
0820230510206600000610504JOSE JAVIER              VALERO                   LOPEZ                    M00000000          107S
0820230510206600000610504JULIO                    HAYA                     MONTEAGUDO               M00000000          101S
0820230510206600000610504MARIA LLANOS             HAYA                     LOPEZ                    F00000000          109S
0820230510206600003006601ALEJANDRO                HUERTA                   PARDO                    M00000000          067N
0820230510206600003006601DOLORES                  TRUEBA                   COLLADO                  F00000000          062N
0820230510206600003006601ISABEL                   DEL REY                  JIMENEZ                  F00000000          071S
0820230510206600003006601PEDRO                    JIMENEZ                  SORIANO                  M00000000          064N
0820230510208200000603001EZEQUIEL                 LANCIS                   NIETO                    M00000000          031N
0820230510208200000603001FRANCISCO                MINGUEZ                  GARCIA                   M00000000          031N
0820230510208200000603001LAUREANO                 LANCIS                   SAEZ                     M00000000          035S
0820230510208200000603001MARIA JOSEFA             NIETO                    MURCIA                   F00000000          026N
0820230510208200003005004JOSÉ                     BELTRÁN                  TORRES                   M00000000          048S
0820230510208200003005004JOSÉ                     MATIES                   BELLIDO                  M00000000          046S
0820230510208200003005004LAURA                    MARANCHÓN                GANDÍA                   F00000000          052S
0820230510208200003005004MARÍA LLANOS             SÁNCHEZ                  COLLADO                  F00000000          054S
0820230510208300000608601CARLOS MIGUEL            CALERO                   JIMENEZ                  M00000000          083N
0820230510208300000608601LOURDES                  VICENTE                  GIL                      F00000000          090S
0820230510208300000608601SERGIO                   MORCILLO                 GIL                      M00000000          087N
0820230510208300000608601VICTOR MIGUEL            SERRANO                  MONEDERO                 M00000000          084N
0820230510208300003009104JOSE MARIA               ORTEGA                   RODRIGUEZ                M00000000          090S
0820230510208300003009104LUIS MIGUEL              GIL                      ROSELLO                  M00000000          093S
0820230510208300003009104MARIA DEL PILAR          LEAL                     SERRANO                  F00000000          096S
0820230510208300003009104ROMAN                    SALES                    VIZCAINO                 M00000000          087S
0820230510300800000601801ALBERTO                  HITA                     DIAZ DE MERA             M00000000          000N
0820230510300800000601801ANGEL                    VAÑO                     GUILL                    M00000000          000N
0820230510300800000601801JACINTO                  LLORET                   AZNAR                    M00000000          046S
0820230510300800000601801RAFAEL JOAQUIN           ARACIL                   MORENO                   M00000000          026N
0820230510300800003007704FRACISCO MIGUEL          FENOLLAR                 IVAÑEZ                   M00000000          082S
0820230510300800003007704GEMA                     BALDÓ                    CRESPO                   F00000000          082S
0820230510300800003007704RAFAEL LORETO            DEL RINCÓN               MARTÍNEZ                 M00000000          077S
0820230510300800003007704SILVIA                   ARACIL                   SERRA                    F00000000          068S
0820230510300800010200500CLARA                    UBEDA                    BADIA                    F00000000          004N
0820230510300800010200500GUSTAU                   PEREZ                    PEREZ                    M00000000          006N
0820230510300800010200500MARIA TERESA             FAUS                     BORONAT                  F00000000          006N
0820230510301600000605405ADRIAN                   SEGUI                    OLCINA                   M00000000          042S
0820230510301600000605405IGNACIO                  FERRI                    ALEMANY                  M00000000          043S
0820230510301600000605405ISMAEL                   CERDÁ                    SANCHEZ                  M00000000          037S
0820230510301600000605405MARIA AMPARO             CORTÉS                   ALCARÁZ                  F00000000          039S
0820230510301600000605405PAU                      NAVARRO                  GINER                    M00000000          056S
0820230510301600003001700FRANCISCO                ADRIÁN                   JURADO                   M00000000          020N
0820230510301600003001700JORDI                    SEMPERE                  SERRA                    M00000000          014N
0820230510301600003001700RAFAEL FRANCISCO         SEMPERE                  VERDÚ                    M00000000          017N
0820230510302000000601301DIEGO MIGUEL             SENDRA                   NAVALON                  M00000000          004N
0820230510302000000601301JOSE ANGEL               RIQUELME                 BOTELLA                  M00000000          001N
0820230510302000000601301VICENTE JOSE             MOYA                     GARCIA                   M00000000          035S
0820230510302000003006504FRANCISCO JAVIER         MOLINA                   AURA                     M00000000          066S
0820230510302000003006504JOSÉ RAÚL                LÓPEZ                    DOMENECH                 M00000000          060S
0820230510302000003006504JUAN TOMÁS               BOU                      PÉREZ                    M00000000          070S
0820230510302000003006504MARÍA CONSUELO           NADAL                    BERNABEU                 F00000000          064S
0820230510302000011900200CANDELA                  PERPINYÀ                 GARCIA                   F00000000          003N
0820230510302000011900200LONGINOS                 GIL                      PUERTOLAS                M00000000          003N
0820230510302000011900200RAFAEL                   ASENSIO                  CHENOVART                M00000000          002N
0820230510302200000607804IGNACIO                  PALMER                   GONZALEZ                 M00000000          076S
0820230510302200000607804LORENA                   CALDERÓN                 MORAL                    F00000000          085S
0820230510302200000607804MIGUEL ANGEL             BANGO                    MARTINEZ                 M00000000          072S
0820230510302200000607804RAUL                     DALMAU                   ALIAGA                   M00000000          080S
0820230510302200003004201CARMEN                   MONTERO                  TORTOSA                  F00000000          046S
0820230510302200003004201JORGE AGUSTÍN            GINER                    FERRÁNDIZ                M00000000          040N
0820230510302200003004201LAURA                    VALOR                    TORMO                    F00000000          042N
0820230510302200003004201VICTOR                   OLTRA                    BARRASA                  M00000000          040N
0820230510302200012100400DANIEL PABLO             TEJERO                   OLIVARES                 M00000000          003N
0820230510302200012100400IGNACIO                  MOLLA                    LLIN                     M00000000          004N
0820230510302200012100400MERITXELL                MULAS                    GONZALEZ                 F00000000          006N
0820230510302700000609101ARANTXA                  SEGUI                    MENACHES                 F00000000          091N
0820230510302700000609101IVAN                     MARTINEZ                 JUAN                     M00000000          089N
0820230510302700000609101JORGE                    SEGUI                    SANCHEZ                  M00000000          095S
0820230510302700000609101JUAN LUIS                CANO                     PASCUAL                  M00000000          090N
0820230510302700003010904RAFAELA                  LLORENS                  CEPAS                    F00000000          111S
0820230510302700003010904ROSA MARIA               REIG                     ROMA                     F00000000          112S
0820230510302700003010904VICTOR ENRIQUE           ROMEU                    LLORENS                  M00000000          109S
0820230510302700003010904XAVIER JORDI             JUAN                     SENABRE                  M00000000          106S
0820230510302700012300000ANTONIO                  DOMINGUEZ                DOMINGUEZ                M00000000          000N
0820230510302700012300000JOSEFA                   LLORET                   COSTA                    F00000000          001N
0820230510302700012300000MIGUEL                   BUFORN                   PEREZ                    M00000000          000N
0820230510302700012300000REBECA                   MARTINEZ                 SOLER                    F00000000          000N
0820230510302700012300000TOMAS                    RUBIO                    CLAROS                   M00000000          000N
0820230510303200000606005FRANCISCO JORGE          AZNAR                    JORDA                    M00000000          046S
0820230510303200000606005JOSE CARLOS              BARRACHINA               BERNABEU                 M00000000          059S
0820230510303200000606005MARIA JESUS              GARCIA                   BARRACHINA               F00000000          059S
0820230510303200000606005MIGUEL ANGEL             GARCIA                   GONZALEZ                 M00000000          046S
0820230510303200000606005MIQUEL                   AZNAR                    COMPANY                  M00000000          032S
0820230510303200003001400BLANCA MARÍA             VIDAL                    SONEIRA                  F00000000          012N
0820230510303200003001400FRANCISCO                GARCÍA                   BROTONS                  M00000000          012N
0820230510303200003001400LUIS MIGUEL              MULLOR                   BARBER                   M00000000          018N
0820230510303200012801400CRISEIDA                 CERRADELO                GARCIA                   F00000000          008N
0820230510303200012801400PAU                      TORREGOSA                I COLOMA                 M00000000          021N
0820230510303300000607805ANDREA                   FRACES                   BALAGUER                 F00000000          052S
0820230510303300000607805DAVID                    BLANES                   FRACES                   M00000000          078S
0820230510303300000607805JOSE                     DEVESA                   RIBES                    M00000000          068S
0820230510303300000607805JUAN JOSE                GINER                    POVEDA                   M00000000          055S
0820230510303300000607805MARIA ISABEL             SALES                    GORGUES                  F00000000          061S
0820230510303300003000400JOAN                     LLOPIS                   SUCH                     M00000000          004N
0820230510303300003000400JORGE JOSE               CORTES                   MARTINEZ                 M00000000          006N
0820230510303300003000400MARIA                    ESTEBAN                  CORTES                   F00000000          004N
0820230510303300003000400NOELIA                   PUJANTE                  GARRIDO                  F00000000          004N
0820230510303300003000400VICENTE JOSE             JORRO                    SUCH                     M00000000          000N
0820230510303300012900100AMBROSIO                 ARANDA                   LARA                     M00000000          001N
0820230510303300012900100ANGELA                   SERRAT                   GUARINOS                 F00000000          001N
0820230510303300012900100JAUME                    SAVAL                    DEVESA                   M00000000          000N
0820230510303300012900100RAMIR MIQUEL             DURA                     TORRES                   M00000000          001N
0820230510303300012900100ROSER                    DURA                     RONDA                    F00000000          001N
0820230510303600000605705DAVID                    BLANQUER                 JORDA                    M00000000          048S
0820230510303600000605705FRANCISCO                FERRANDO                 IVORRA                   M00000000          032S
0820230510303600000605705JAVIER                   NAVARRO                  ADRIAN                   M00000000          059S
0820230510303600000605705JOSE MARIA               VERDU                    GARCIA                   M00000000          048S
0820230510303600000605705MARCELA                  BLANQUER                 JORDA                    F00000000          041S
0820230510303600003000300JAVIER                   LERMA                    LLORCA                   M00000000          004N
0820230510303600003000300MARÍA ISABEL             RIBERA                   ASENSI                   F00000000          003N
0820230510303600013000200FRANCISCO                GARCIA                   RIERA                    M00000000          004N
0820230510303600013000200JOSE RICARDO             DOMENECH                 DURÀ                     M00000000          000N
0820230510303600013000200MARIA NIEVES             GRAU                     MARTINEZ                 F00000000          004N
0820230510306000000602901DAVID                    REIG                     MOLLA                    M00000000          026N
0820230510306000000602901FERNANDO                 PALOMARES                BEZUNARTEA               M00000000          037S
0820230510306000000602901PERFECTO                 SANSALVADOR              BOTELLA                  M00000000          031N
0820230510306000000602901SILVIA                   SOLER                    CANDELA                  F00000000          025N
0820230510306000003005004ALEJANDRO                MONTAVA                  MARTÍNEZ                 M00000000          055S
0820230510306000003005004JORDI                    ALVADO                   LLORENÇ                  M00000000          046S
0820230510306000003005004JULIO                    GADEA                    BRAVO                    M00000000          053S
0820230510306000003005004MARÍA MILAGROS           MARTÍNEZ                 ESCUDERO                 F00000000          048S
0820230510306700000603101JESUS SALVADOR           PEREZ                    PEREZ                    M00000000          029N
0820230510306700000603101MIGUEL ANGEL             MASANET                  MATEU                    M00000000          034S
0820230510306700000603101SERGIO                   VERDU                    VERDU                    M00000000          030N
0820230510306700003006304ALFRED                   LLODRÁ                   FERRER                   M00000000          061S
0820230510306700003006304ISMAEL                   VIDAL                    SONEIRA                  M00000000          067S
0820230510306700003006304JORGE                    MASANET                  PASTOR                   M00000000          064S
0820230510306700003006304NÚRIA                    LLODRÁ                   GARCÍA                   F00000000          063S
0820230510306700017200000CONCEPCION               OLID                     NUÑEZ                    F00000000          000N
0820230510306700017200000FERRAN                   PARADA                   I RIVELLES               M00000000          000N
0820230510306700017200000FRANCESC FELIP           ARACIL                   PEREZ                    M00000000          000N
0820230510308600000601200MARIA ASUNCION           GOMIS                    MATEU                    F00000000          012N
0820230510308600000601200PAULA                    PICO                     CERDA                    F00000000          016N
0820230510308600000601200VERONICA BELEN           LARCO                    CHACON                   F00000000          008N
0820230510308600003011705CÉSAR FRANCISCO          GARCÍA                   BONET                    M00000000          125S
0820230510308600003011705JOSEP ANTONI             ALÓS                     I MIRA                   M00000000          096S
0820230510308600003011705JOSEP MIQUEL             FERRANDO                 GUARDIOLA                M00000000          093S
0820230510308600003011705MARÍA JOSÉ               RIPOLL                   CARDONA                  F00000000          063S
0820230510308600003011705MARIANO                  CARDONA                  TORTOSA                  M00000000          093S
0820230510308600018900700EMILIANA                 SUAREZ                   RODRIGUEZ                F00000000          011N
0820230510308600018900700FRANCISCO                VAZQUEZ                  VESES                    M00000000          006N
0820230510308600018900700JOSE                     CANTON                   VITORIA                  M00000000          004N
0820230510313400000606002JUAN JOSE                SENDRA                   NADAL                    M00000000          060N
0820230510313400000606002JUAN JOSE                SENDRA                   NADAL                    M00000000          061S
0820230510313400000606002VICENTE                  ALCARAZ                  GASCO                    M00000000          056N
0820230510313400000606002VICENT                   LLODRA                   RUZ                      M00000000          063S
0820230510313400003006303ALEXANDRA                EFIMENCO                 EFIMENCO                 F00000000          052N
0820230510313400003006303ENRIQUE                  MEZQUIDA                 CERVERA                  M00000000          067S
0820230510313400003006303INMACULADA               NADAL                    CAMPS                    F00000000          068S
0820230510313400003006303PABLO                    MARTÍNEZ                 SARCH                    M00000000          066S
0820230510313400024600000FERRAN                   ESCRIVÁ                  CASANOVA                 M00000000          000N
0820230510313400024600000FUENSANTA                BATALLER                 BURGUERA                 F00000000          000N
0820230510313500000600400CARLOS                   ALVAREZ                  PIC                      M00000000          008N
0820230510313500000600400JOAQUÍN                  COMPANY                  LLORENS                  M00000000          002N
0820230510313500000600400MANUEL RICARDO           RODRÍGUEZ                PITALUGA                 M00000000          004N
0820230510313500000600400MARÍA CARMEN             TIRADO                   GARCÍA                   F00000000          000N
0820230510313500000600400ROSA ANA                 DEVESA                   LLEDO                    F00000000          002N
0820230510313500003005701CRISTINA INES            FRAU                     ALEMANY                  F00000000          045N
0820230510313500003005701JUAN VICENTE             MOLL                     MEGUAL                   M00000000          062S
0820230510313500003005701LEONOR NAZARIA           JIMÉNEZ                  DAMASO                   F00000000          039N
0820230510313500003005701ROSA                     LLOPIS                   APARISI                  F00000000          041N
0820230510313500003005701TERESA                   BARBER                   MASANET                  F00000000          043N
0820230510313500024708604CESAR                    CORTELL                  MOLL                     M00000000          066S
0820230510313500024708604NICOLAS                  MENGUAL                  BARBER                   M00000000          091S
0820230510313500024708604PASCUAL                  DURÀ                     CÓRDOBA                  M00000000          085S
0820230510313500024708604SARA                     MOLL                     MONTANER                 F00000000          105S
0820230510400900000606605FRANCISCO                MARTÍNEZ                 ÁVALOS                   M00000000          047S
0820230510400900000606605JUAN BLAS                MARTÍNEZ                 SÁNCHEZ                  M00000000          060S
0820230510400900000606605JUAN MANUEL              SÁNCHEZ                  PÉREZ                    M00000000          055S
0820230510400900000606605SAGRARIO DEL ROSARIO     SÁEZ                     LATORRE                  F00000000          050S
0820230510400900000606605TRINIDAD ISABEL          PÉREZ                    MORALES                  F00000000          055S
0820230510400900000701700JOSE ANTONIO             ALCARAZ                  BECERRA                  M00000000          022N
0820230510400900000701700JOSE                     TEJEDOR                  GONZALEZ                 M00000000          012N
0820230510400900003000700EMILIA                   JIMENEZ                  MUÑOZ                    F00000000          007N
0820230510400900003000700JOSE MARIA               GARRIDO                  RAMOS                    M00000000          008N
0820230510400900003000700JOSE MARIA               MOLINA                   CAÑADAS                  M00000000          003N
0820230510400900003000700LAURA                    NEGRILLO                 LOPEZ                    F00000000          010N
0820230510400900003000700RICARDO ANTONIO          ROS                      ORTIZ                    M00000000          000N
0820230510401200000602701ISABEL MARÍA             VILLEGAS                 SÁNCHEZ                  F00000000          001N
0820230510401200000602701LUIS                     SALINAS                  IGUIÑO                   M00000000          027N
0820230510401200000602701MANUEL SEBASTIÁN         QUIRANTES                LORENZO                  M00000000          034S
0820230510401200000602701NOELIA                   LATORRE                  DÍAZ                     F00000000          026N
0820230510401200000602701RAFAEL                   GUALDA                   MORENO                   M00000000          022N
0820230510401200000700400JOSÉ                     ALONSO                   PRIETO                   M00000000          004N
0820230510401200003011604ANTONIO                  NAVARRO                  LÓPEZ                    M00000000          115S
0820230510401200003011604ANTONIO                  RODRÍGUEZ                GÁLVEZ                   M00000000          120S
0820230510401200003011604MARÍA DEL MAR            SALVALDOR                CORTÉS                   F00000000          119S
0820230510401200003011604MARÍA TERESA             NAVARRO                  LORENZO                  F00000000          111S
0820230510401200026300100EDUARDO                  LANDINES                 TORTOSA                  M00000000          001N
0820230510401400000605101CARMEN                   QUIRANTES                FERNÁNDEZ                F00000000          044N
0820230510401400000605101DIEGO                    MIRANDA                  LÓPEZ                    M00000000          050N
0820230510401400000605101ISABEL MARÍA             MIRANDA                  MIRANDA                  F00000000          070S
0820230510401400000605101JOSÉ MANUEL              MONTOYA                  MARTÍN                   M00000000          043N
0820230510401400000605101MARÍA CONCEPCIÓN         CABALLERO                REAL                     F00000000          000N
0820230510401400000700000MARIA CRISTINA           PRIETO                   CALVENTE                 F00000000          000N
0820230510401400003009904DELIA                    BALAGUER                 MUÑOZ                    F00000000          077S
0820230510401400003009904FRANCISCA BELÉN          QUIRANTES                MARTÍNEZ                 F00000000          083S
0820230510401400003009904FRANCISCA DEL PILAR      ALPAÑEZ                  CAZORLA                  F00000000          066N
0820230510401400003009904FRANCISCO                COMPÁN                   BALAGUER                 M00000000          078S
0820230510401400003009904FRANCISCO                GARCÍA                   GARCÍA                   M00000000          095S
0820230510401500000600000ALICIA                   MARTÍNEZ                 PÉREZ                    F00000000          002N
0820230510401500000600000BLASA MARÍA              PÉREZ                    SÁNCHEZ                  F00000000          000N
0820230510401500000600000DIEGO                    MARTÍNEZ                 CABRERA                  M00000000          000N
0820230510401500000600000JOSÉ FRANCISCO           MARTÍN                   RUÍZ                     M00000000          000N
0820230510401500000600000LUIS                     VILLEGAS                 SÁNCHEZ                  M00000000          001N
0820230510401500000701900CARMEN ROSARIO           DÍAZ                     DELGADO                  F00000000          027N
0820230510401500000701900ENRIQUE                  OJEDA                    MARTÍNEZ                 M00000000          005N
0820230510401500000701900MIGUEL                   GARCÍA                   AMATE                    M00000000          027N
0820230510401500003008305JOSÉ MANUEL              GIL                      GARCÍA                   M00000000          064S
0820230510401500003008305JUAN RAMÓN               LORENZO                  GARCIA                   M00000000          065S
0820230510401500003008305MANUEL NICOLÁS           CUADRA                   GONZÁLEZ                 M00000000          073S
0820230510401500003008305MARÍA TERESA             GARCÍA                   JURADO                   F00000000          065S
0820230510401500003008305NOELIA                   GONZÁLEZ                 CIRERA                   F00000000          066S
0820230510401500027302000FRANCISCO                GIL                      CORONEL                  M00000000          021N
0820230510401500027302000IGNACIO                  DE LAS HERAS             RODRÍGUEZ                M00000000          020N
0820230510401900000607201CARMEN                   EGEA                     CARRICONDO               F00000000          012N
0820230510401900000607201FRANCISCO JAVIER         LÓPEZ                    SEGURA                   M00000000          073N
0820230510401900000607201FRANCISCO                PANDO                    SEGURA                   M00000000          085S
0820230510401900000607201MIGUEL ÁNGEL             SOBRINO                  SOLA                     M00000000          068N
0820230510401900000607201PEDRO                    MARTÍNEZ                 VILLANUEVA               M00000000          050N
0820230510401900000700200NIEVES                   GRANDA                   MARTINEZ                 F00000000          002N
0820230510401900003010104ÁLVARO                   BARRACHINA               MARTÍNEZ                 M00000000          100S
0820230510401900003010104DOMINGO                  BARRACHINA               SÁNCHEZ                  M00000000          095S
0820230510401900003010104ENCARNACIÓN MARÍA        ZAGUIRRE                 FERNÁNDEZ                F00000000          104S
0820230510401900003010104LUCÍA                    RUBIO                    SEGURA                   F00000000          030N
0820230510401900003010104MARÍA DOLORES            CANUDAS                  COSTA                    F00000000          076S
0820230510401900026300000MANUEL                   VELASCO                  AGUILERA                 M00000000          000N
0820230510402100000611605ALBA MARÍA               LÓPEZ                    SÁNCHEZ                  F00000000          099S
0820230510402100000611605ALEXANDRA                PÉREZ                    SÁNCHEZ                  F00000000          105S
0820230510402100000611605ANTONIO                  PORDOY                   MUÑOZ                    M00000000          115S
0820230510402100000611605ANTONIO                  RODRÍGUEZ                AZOR                     M00000000          042S
0820230510402100000611605JORGE                    DOMENE                   GARCÍA                   M00000000          104S
0820230510402100000700000MARIA JOSE               RODRIGUEZ                ROMERA                   F00000000          000N
0820230510402100003001700ANTONIO                  MORENO                   FUENTES                  M00000000          017N
0820230510402100003001700JUAN                     MORENO                   FUENTES                  M00000000          016N
0820230510402100003001700MANUEL                   CARBAJAL                 LAO                      M00000000          016N
0820230510402100003001700MOHAMED AHMED            BAGDAG                   MOHAMED                  M00000000          021N
0820230510402100026300000ARMANDO                  MOYA                     RUÍZ                     M00000000          000N
0820230510402100026300000ELISABET                 SANTIAGO                 MAYA                     F00000000          001N
0820230510402100026300000MANUEL                   SAAVEDRA                 CASTILLO                 M00000000          001N
0820230510402100026300000ZAIRA                    ESPINOSA                 PÉREZ                    F00000000          001N
0820230510402300000606704CARMEN                   GONZÁLEZ                 GARVÍ                    F00000000          058S
0820230510402300000606704JUAN                     SARABIA                  LUCAS                    M00000000          068S
0820230510402300000606704MARÍA DOLORES            CASTRO                   FORTE                    F00000000          056S
0820230510402300000606704PEDRO JESUS              VIÑOLO                   HERNÁNDEZ                M00000000          057S
0820230510402300000606704ROSANA                   OJEDA                    VALVERDE                 F00000000          031N
0820230510402300000701000JUAN MIGUEL              PÉREZ                    IBAÑEZ                   M00000000          010N
0820230510402300003003401FRANCISCO                MAESO                    GARVI                    M00000000          030N
0820230510402300003003401FRANCISCO                SÁNCHEZ                  FERNÁNDEZ                M00000000          026N
0820230510402300003003401JOSÉ MANUEL              BUENO                    SÁNCHEZ                  M00000000          021N
0820230510402300003003401MATILDE                  CORTÉS                   VILLAFAÑA                F00000000          020N
0820230510402300003003401RAFAEL RICARDO           BARANCO                  RUIZ                     M00000000          039S
0820230510402300026300100RAMÓN                    DE LAS HERAS             RODRÍGUEZ                M00000000          001N
0820230510402800000607101FRANCISCO DANIEL         CASTRO                   HERRADA                  M00000000          068N
0820230510402800000607101GREGORIO                 GIL                      AYALA                    M00000000          081S
0820230510402800000607101LORENA                   MARTÍNEZ                 PÉREZ                    F00000000          000N
0820230510402800000607101MIGUEL                   SÁNCHEZ                  CASTILLO                 M00000000          072N
0820230510402800000607101NICOLAS                  SALMERÓN                 PALAFOX                  M00000000          063N
0820230510402800000700700ANTONIO LUIS             ORTA                     BLANES                   M00000000          020N
0820230510402800000700700JOSE ANTONIO             BERENGUER                RIVAS                    M00000000          003N
0820230510402800000700700JOSE DAVID               GÓMEZ                    MAS                      M00000000          003N
0820230510402800000700700MIGUEL ANGEL             MANRIQUE                 GONZALEZ                 M00000000          003N
0820230510402800003009204ANTONIO JESÚS            ALCOCER                  MARTÍNEZ                 M00000000          025N
0820230510402800003009204JOSÉ MANUEL              CASTRO                   SÁNCHEZ                  M00000000          089S
0820230510402800003009204JUAN EMILIO              FORTES                   RAMÍREZ                  M00000000          072S
0820230510402800003009204MODESTO                  MARTÍNEZ                 GALERA                   M00000000          090S
0820230510402800003009204MONTSERRAT               ANDRÉS                   BERBEL                   F00000000          092S
0820230510402800026300800MARTÍN                   RODRÍGUEZ                MÁRQUEZ                  M00000000          008N
0820230510403300000602801JENNIFER                 EGEA                     CARREÑO                  F00000000          023N
0820230510403300000602801MANUEL                   EGEA                     NIETO                    M00000000          030N
0820230510403300000602801MANUEL JOSE              ORTEGA                   JIMÉNEZ                  M00000000          033S
0820230510403300000602801MIREYA                   MIRANDA                  PEREZ                    F00000000          022N
0820230510403300000602801RAFAEL                   GARCÍA                   VERGEL                   M00000000          005N
0820230510403300000700000LUIS                     POMARES                  GARCIA                   M00000000          000N
0820230510403300003006304ANA MARÍA                GALINDO                  RODRÍGUEZ                F00000000          063S
0820230510403300003006304FRANCISCO                ORTEGA                   SALVADOR                 M00000000          058S
0820230510403300003006304GEMA                     MARTÍNEZ                 NIETO                    F00000000          060S
0820230510403300003006304NOEMÍ                    CRUZ                     MARTÍNEZ                 F00000000          066S
0820230510403300003006304SONIA                    NIETO                    MESAS                    F00000000          008N
0820230510403300026300000ANGEL                    MARTÍNEZ                 AMATE                    M00000000          000N
0820230510403400000611804ADRIÁN                   FUENTES                  YEPES                    M00000000          117S
0820230510403400000611804ÁNGEL                    CAPEL                    SÁNCHEZ                  M00000000          114S
0820230510403400000611804JOSÉ                     FUENTES                  FERNÁNDEZ                M00000000          121S
0820230510403400000611804RAMÓN                    LOSILLA                  CORTES                   M00000000          001N
0820230510403400000611804RAÚL                     GRANERO                  PADILLA                  M00000000          121S
0820230510403400000700000JOSE MATIAS              RIVAS                    LÓPEZ                    M00000000          000N
0820230510403400003004301ANDRÉS                   RODRÍGUEZ                GILABERT                 M00000000          043N
0820230510403400003004301EVA MARÍA                SERRANO                  PEINADO                  F00000000          043N
0820230510403400003004301MARÍA JOSEFA             PEINADOS                 RIZOS                    F00000000          044S
0820230510403400003004301MARÍA                    TORRECILLAS              FERRE                    F00000000          041N
0820230510403400003004301PRUDENCIO                CAPEL                    CAPEL                    M00000000          002N
0820230510403400028000500LEOPOLDO                 CAPEL                    MOLINA                   M00000000          005N
0820230510405600000608905DOLORES                  MORENO                   SOBRINO                  F00000000          082S
0820230510405600000608905GUILLERMO                MEDINA                   RODRÍGUEZ                M00000000          072S
0820230510405600000608905RAMONA                   SOBRINO                  RODRÍGUEZ                F00000000          066S
0820230510405600000608905ROSALÍA DE LA MERCED     MARÍN                    GARCÍA                   F00000000          071S
0820230510405600000608905SERAFINA                 RUIZ                     RUEDA                    F00000000          068S
0820230510405600003000000FRANCISCO MOISÉS         GARRIDO                  MEDRÁN                   M00000000          001N
0820230510405600003000000FRANCISCO                PARRA                    LÓPEZ                    M00000000          000N
0820230510405600003000000MARTA                    HERMOSO                  GIMÉNEZ                  F00000000          000N
0820230510405600003000000PATRICIA                 ROPERO                   ALONSO                   F00000000          001N
0820230510405600003000000SALVADOR                 NAVARRO                  GARCÍA                   M00000000          000N
0820230510405600003605300ANTONIO                  TIJERAS                  BOSQUEZ                  M00000000          048N
0820230510405600003605300CARMEN AQUILINA          ARRIAGA                  SAEZ                     F00000000          009N
0820230510405600003605300JAIME GUILLERMO          DOMENE                   RODRIGUEZ                M00000000          057N
0820230510405600003605300SALVADOR                 SEGURA                   ARRIAGA                  M00000000          063N
0820230510405600003605300SUSANA                   BOSQUEZ                  MORENO                   F00000000          038N
0820230510405600026300000LUIS                     ALFONSO                  FERNÁNDEZ                M00000000          000N
0820230510406800000604100ANTONIO FRANCISCO        MARTÍNEZ                 GARDON                   M00000000          037N
0820230510406800000604100FRANCISCO                BAYO                     CRUZ                     M00000000          003N
0820230510406800000604100MARÍA DEL CARMEN         CEREZO                   MESAS                    F00000000          036N
0820230510406800000604100MARÍA INMACULADA         CRESPO                   MORALES                  F00000000          038N
0820230510406800000604100MARIANO                  ESCORIZA                 GIL                      M00000000          050N
0820230510406800000700000FRANCISO JOSE            GONZALEZ                 IBAÑEZ                   M00000000          000N
0820230510406800003007203ISABEL                   NIETO                    MIRANDA                  F00000000          079S
0820230510406800003007203JUAN FRANCISCO           LÁZARO                   MARTÍNEZ                 M00000000          066S
0820230510406800003007203MANUEL                   FERNÁNDEZ                PÉREZ                    M00000000          072S
0820230510406800003007203MARÍA DEL PILAR          MARTÍNEZ                 NIETO                    F00000000          041N
0820230510406800003007203MARÍA                    NIETO                    MIRANDA                  F00000000          033N
0820230510406800029805502CARLOS                   MARTÍNEZ                 MARTÍNEZ                 M00000000          054S
0820230510406800029805502GUILLERMO                MESAS                    MESAS                    M00000000          056S
0820230510406800029805502JOSÉ                     SORIANO                  ARANDA                   M00000000          012N
0820230510406800029805502MANUEL                   MARTÍNEZ                 GARRIDO                  M00000000          048N
0820230510406800029805502SOLEDAD                  MESAS                    MORALES                  F00000000          051N
0820230510408000000609204ELENA                    TIJERAS                  MARTÍNEZ                 F00000000          095S
0820230510408000000609204FELIPE SALVADOR          BERENGUEL                GONZÁLEZ                 M00000000          090S
0820230510408000000609204JOSÉ                     LUQUE                    FERNÁNDEZ                M00000000          092S
0820230510408000000609204JUAN ANTONIO             GÓMEZ                    GIL                      M00000000          003N
0820230510408000000609204SONIA ASCENSIÓN          ROQUE                    MARTÍNEZ                 F00000000          090S
0820230510408000000700200ALBA                     DÍAZ                     REQUENA                  F00000000          002N
0820230510408000003008701CHRISTEL                 GARCÍA                                            F00000000          086N
0820230510408000003008701FRANCISCO                GARCÍA                   FERRE                    M00000000          086N
0820230510408000003008701GUADALUPE                MARTÍNEZ                 GONZÁLEZ                 F00000000          086N
0820230510408000003008701JOSE MANUEL              MARTÍNEZ                                          M00000000          087S
0820230510408000003008701ROSA MARÍA               GARCÍA                   GIL                      F00000000          003N
0820230510408000026300200MIGUEL ANGEL             MUNUERA                  MOLINA                   M00000000          002N
0820230510408700000611605JESÚS                    SÁNCHEZ                  ARIAS                    M00000000          088S
0820230510408700000611605JUAN CARLOS              MARTÍNEZ                 MARTOS                   M00000000          086S
0820230510408700000611605LUIS                     LIRIA                    MARÍN                    M00000000          087S
0820230510408700000611605MARK STEPHEN             PORTER                                            M00000000          091S
0820230510408700000611605RAÚL                     GUIRAO                   LIRIA                    M00000000          113S
0820230510408700000700800JUAN RAMON               RAMOS                    MUÑOZ                    M00000000          008N
0820230510408700003001900CARLOS                   CARREÑO                  GARCÍA                   M00000000          021N
0820230510408700003001900DANIEL                   CANO                     GONZÁLEZ                 M00000000          019N
0820230510408700003001900EVA                      SÁNCHEZ                  RODRÍGUEZ                F00000000          017N
0820230510408700003001900ROCÍO                    SANTISTEBAN              URÁN                     F00000000          019N
0820230510408700031100400JESÚS                    MEMBRIVE                 PÉREZ                    M00000000          004N
0820230510409700000606701ENCARNACIÓN              MARTÍNEZ                 MARTÍNEZ                 F00000000          081S
0820230510409700000606701PEDRO                    LEÓN                     QUESADA                  M00000000          005N
0820230510409700000606701RAMÓN JESÚS              MARTÍNEZ                 ESQUINAS                 M00000000          060N
0820230510409700000606701RAÚL                     GARBIN                   ACEITUNO                 M00000000          074N
0820230510409700000606701TRINIDAD                 MORENO                   RUIZ                     F00000000          051N
0820230510409700000700300PABLO JOSÉ               RODÓN                    MARTÍNEZ                 M00000000          003N
0820230510409700003012904MARÍA DEL MAR            SEGURA                   RUBIRA                   F00000000          141S
0820230510409700003012904RAFAEL                   GARCÍA                   SOLA                     M00000000          126S
0820230510409700003012904RAFAEL                   MIRANDA                  ESCORIZA                 M00000000          123S
0820230510409700003012904RAMÓN                    RUBIRA                   ESCORIZA                 M00000000          129S
0820230510409700031204000ANTONIO JESÚS            CARMONA                  GARCÍA                   M00000000          040N
0820230510500100000607401DANIEL JESUS             SAEZ                     ALVAREZ                  M00000000          075N
0820230510500100000607401JOSE                     ALVAREZ                  HERNANDEZ                M00000000          076S
0820230510500100000607401JUAN                     COMBRADO                 GREGO                    M00000000          076N
0820230510500100000607401JUAN MANUEL              MOLINA                   MELENDEZ                 M00000000          069N
0820230510500100003008204CARMEN                   GARCIA                   GARRIDO                  F00000000          079S
0820230510500100003008204MARIA                    FERNANDEZ                HEBRERO                  F00000000          081S
0820230510500100003008204MIRIAM                   GONZALEZ                 BAUTISTA                 F00000000          083S
0820230510500100003008204NATALIA                  TORRECILLA               PERRINO                  F00000000          087S
0820230510500100032200900LAURA                    JIMÉNEZ                  ORTIZ                    F00000000          009N
0820230510500500000608004ALBERTO                  GOMEZ                    MARTIN                   M00000000          087S
0820230510500500000608004ALEJANDRO                GARCIA                   HERNANDEZ                M00000000          080S
0820230510500500000608004ANGEL                    MARTIN                   HERNANDEZ                M00000000          081S
0820230510500500000608004GUILLERMO                RODRIGUEZ                GARCIA                   M00000000          073S
0820230510500500003004101JUAN MANUEL              JIMENEZ                  HERNANDEZ                M00000000          034N
0820230510500500003004101OSCAR                    LOPEZ                    MARTIN                   M00000000          041N
0820230510500500003004101OSCAR LUIS               MARTIN                   GONZALEZ                 M00000000          037N
0820230510500500003004101SANDRA                   LOPEZ                    DAVILA                   F00000000          052S
0820230510500500032200600RAÚL                     JIMÉNEZ                  JIMÉNEZ                  M00000000          006N
0820230510500700000605405DANIEL                   SANCHEZ                  MARTIN                   M00000000          036S
0820230510500700000605405FRANCISCO JAVIER         GARCIA                   MUÑOZ                    M00000000          047S
0820230510500700000605405JUAN                     YEBENES                  CABALLERO                M00000000          042S
0820230510500700000605405MARTINA                  PERAL                    MARTIN                   F00000000          059S
0820230510500700000605405SUSANA                   SANCHEZ                  JIMENEZ                  F00000000          034S
0820230510500700000700800ALEJANDRO                GARCIA                   MUÑOZ                    M00000000          017N
0820230510500700000700800ALVARO                   PIQUERAS                 MEDINA                   M00000000          001N
0820230510500700000700800CRISTINA                 GARCIA                   SANCHO                   F00000000          011N
0820230510500700000700800GONZALO                  RODRIGUEZ                GARCIA CARO              M00000000          001N
0820230510500700000700800JULIA                    MUÑOZ                    SANCHO                   F00000000          003N
0820230510500700003000300MARIA ASUNCION           ARMADA                   LOPEZ                    F00000000          003N
0820230510500700032200200CELIA                    VILLAREJO                SINES                    F00000000          002N
0820230510500800000608503BORJA ISMAEL             MARTIN                   HERNANDEZ                M00000000          085S
0820230510500800000608503JUAN                     SANCHEZ                  CASELLES                 M00000000          083S
0820230510500800000608503LUIS IGNACIO             AREVALO                  MARTIN                   M00000000          087S
0820230510500800003008302DAVID                    LOPEZ                    ANTONIO                  M00000000          087S
0820230510500800003008302FELIX                    MUÑOZ                    GALLEGO                  M00000000          079N
0820230510500800003008302JESUS JULIO              IZQUIERDO                CALLEJO                  M00000000          089S
0820230510500800003008302JUSTO                    MEDINA                   GALLEGO                  M00000000          078N
0820230510500800032200100MARIA TERESA             ORTIZ                    ARENAS                   F00000000          001N
0820230510501000000606504ANA VERONICA             DIAZ                     GONZALEZ                 F00000000          043S
0820230510501000000606504JOSE                     HERNANDEZ                LAZARO                   M00000000          073S
0820230510501000000606504JULIAN                   HERNANDEZ                ALMOHALLA                M00000000          055S
0820230510501000000606504NATALIA                  LOPEZ                    ESCRIBANO                F00000000          028N
0820230510501000000606504PATROCINIO               MARTIN                   HERNANDEZ                F00000000          064S
0820230510501000003001000MARIA CARMEN             ANTONIO                  GONZALEZ                 F00000000          010N
0820230510501000032203801JUAN JOSE                HERAS                    ALTUNA                   M00000000          038S
0820230510501200000605304CARMEN                   JIMENEZ                  HERNANDEZ                F00000000          058S
0820230510501200000605304ENRIQUE                  BERROJALVIZ              LORENZO                  M00000000          055S
0820230510501200000605304JOAQUIN                  MARTIN                   MARTIN                   M00000000          055S
0820230510501200000605304JOSE MANUEL              MARTIN                   FERNANDEZ                M00000000          047S
0820230510501200003004601DANIEL                   HERNANDEZ                PEREZ                    M00000000          045N
0820230510501200003004601JESUS                    PEREZ                    HERNANDEZ                M00000000          044N
0820230510501200003004601LUIS                     HERNANDEZ                MARTIN                   M00000000          046N
0820230510501200003004601MIGUEL ANGEL             HERNANDEZ                JIMENEZ                  M00000000          049S
0820230510501200032201200JOSE MANUEL              LOPEZ                    MONTAÑA                  M00000000          012N
0820230510502300000607501ADRIAN                   RODRIGUEZ                HERRERO                  M00000000          073N
0820230510502300000607501ALBERTO                  PEREZ                    LARGO                    M00000000          078N
0820230510502300000607501Mª ROSARIO               GARCIA                   MARTIN                   F00000000          079S
0820230510502300000607501YOANA                    MARTIN                   DIAZ                     F00000000          073N
0820230510502300003000500DARIO                    MARTIN                   PEDRERO                  M00000000          005N
0820230510502300032208504CAROLINA                 MUÑOZ                    DÍAZ                     F00000000          087S
0820230510502300032208504GUSTAVO                  PERICACHO                RODRIGUEZ                M00000000          091S
0820230510502300032208504MARIA JESÚS              PERICACHO                GARCÍA                   F00000000          079S
0820230510502300032208504MIRIAN                   LÓPEZ                    DÍAZ                     F00000000          084S
0820230510502400000605101ISABEL                   CASANUEVA                SANCHEZ                  F00000000          045N
0820230510502400000605101JOSE ANTONIO             GOMEZ                    SANCHEZ                  M00000000          024N
0820230510502400000605101MARCOS                   DELGADO                  DEL RIO                  M00000000          033N
0820230510502400000605101MIGUEL ANGEL             TEJEDA                   PARADELA                 M00000000          047N
0820230510502400000605101SALVADOR                 SANCHEZ                  MAJADAS                  M00000000          055S
0820230510502400003007704ALVARO                   SANCHEZ                  PIEDELOBO                M00000000          076S
0820230510502400003007704ANDRES                   ESPINOSA                 FERNANDEZ                M00000000          070S
0820230510502400003007704JESUS                    IZQUIERDO                MARTIN                   M00000000          079S
0820230510502400003007704JORGE                    MARTIN                   MALAGA                   M00000000          084S
0820230510502400032200000LAURA                    LOPEZ                    MONTAÑA                  F00000000          000N
0820230510502600000608805CESAR                    RODRIGUEZ                PEREZ                    M00000000          072S
0820230510502600000608805FABIO                    ARENAS                   CAMPO                    M00000000          048S
0820230510502600000608805FAUSTINO                 ARENAS                   SÁEZ                     M00000000          081S
0820230510502600000608805JUAN DIEGO               LOPEZ                    SAEZ                     M00000000          084S
0820230510502600000608805JUAN JOSE                GARCIA                   ARENAS                   M00000000          067S
0820230510502600003000200JORGE ANTONIO            SANCHEZ                  GRANIZO                  M00000000          002N
0820230510502600032200200MARIA DEL ROSARIO        JIMÉNEZ                  JIMÉNEZ                  F00000000          002N
0820230510502600032903600BRUNO                    COCA                     ARENAS                   M00000000          046N
0820230510502600032903600LUIS MIGUEL              VELAZQUEZ                RODRIGUEZ                M00000000          033N
0820230510502600032903600MANUEL                   DIAZ                     GARCIA                   M00000000          037N
0820230510502600032903600MARIA ANGUSTIAS          COCA                     ARENAS                   F00000000          028N
0820230510503300000604903BALDUINO                 PLAZA                    GARCIA                   M00000000          037N
0820230510503300000604903GODOFREDO                GOMEZ                    RUANO                    M00000000          052S
0820230510503300000604903MARIA TERESA             HERNANDEZ                PEREZ                    F00000000          054S
0820230510503300000604903VICTOR MANUEL            NAVAS                    BENITO                   M00000000          053S
0820230510503300003004001PABLO                    AGUIAR                   FOUCES                   M00000000          040S
0820230510503300032204501BRUNO                    FERNANDEZ                OVALLE                   M00000000          045S
0820230510503600000605505HECTOR                   RODRIGUEZ                HERRAEZ                  M00000000          054S
0820230510503600000605505JAVIER                   ARENAS                   MORANTE                  M00000000          046S
0820230510503600000605505MAURINO                  GONZALEZ                 MARTIN                   M00000000          041S
0820230510503600000605505NOELIA                   LOPEZ                    CASTREÑO                 F00000000          047S
0820230510503600000605505SANTIAGO JOSE            SANCHEZ                  VEGA                     M00000000          033S
0820230510503600003000800JAVIER                   RUIZ                     MOTA                     M00000000          008N
0820230510503600032202500MARIA ISABEL             MARTÍN                   JIMÉNEZ                  F00000000          020N
0820230510503600032202500ÓSCAR                    SERRANO                  GARCÍA                   M00000000          027N
0820230510503600032202500RAÚL                     PLIEGO                   BLÁZQUEZ                 M00000000          030N
0820230510503700000605804ANA                      FLOR                     HERNANDEZ                F00000000          053S
0820230510503700000605804JAIME                    GARCIA                   SANCHEZ                  M00000000          080S
0820230510503700000605804JOSE MARIA               MARTIN                   JIMENEZ                  M00000000          056S
0820230510503700000605804RICARDO                  CHAPINAL                 GARCIA                   M00000000          046S
0820230510503700003003100BERNARDINO               ESTEVEZ                  MARTIN                   M00000000          031N
0820230510503700003003100FELICIANO                HERNANDEZ                GONZALEZ                 M00000000          019N
0820230510503700003003100JOSE LUIS                JIMENEZ                  GONZAGA                  M00000000          035N
0820230510503700003003100RAFAEL                   GARCIA                   MARTIN                   M00000000          039N
0820230510503700032202600FERMIN                   MARTIN                   MARTIN                   M00000000          024N
0820230510503700032202600JUAN JERONIMO            RIVERO                   HERNANDEZ                M00000000          038N
0820230510503700032202600RAMIRO LUIS              CARDEDAL                 TABERNA                  M00000000          017N
0820230510503700032604601ALBERTO                  MARTIN                   TABERNA                  M00000000          046S
0820230510503800000604401CARLOS                   JIMENEZ-TORRES           GOMEZ                    M00000000          044N
0820230510503800000604401CRISTINA                 PEREZ                    MARTIN                   F00000000          040N
0820230510503800000604401HONORIO                  RICO                     SANCHEZ                  M00000000          044N
0820230510503800000604401MARCELINO                BLAZQUEZ                 BAENA                    M00000000          048S
0820230510503800003009804CRISTIAN                 JIMENEZ                  MUÑOZ                    M00000000          100S
0820230510503800003009804JOSE ANTONIO             ORGAZ                    RODRIGUEZ                M00000000          103S
0820230510503800003009804MARIA LUISA              MARTIN                   GARCIA                   F00000000          095S
0820230510503800003009804MIGUEL ANGEL             PURAS                    ORGAZ                    M00000000          094S
0820230510503800032200700JOSE DOMINGO             LOPEZ                    CORCOBA                  M00000000          007N
0820230510504200000606904DAVID                    GARCIA                   HERRAEZ                  M00000000          075S
0820230510504200000606904GUILLERMO                HOLGADO                  ALDEA                    M00000000          070S
0820230510504200000606904PATRICIA                 JIMENEZ                  SAEZ                     F00000000          073S
0820230510504200000606904ROBERTO                  GOMEZ                    ZURDO                    M00000000          060S
0820230510504200003002801CRISTIAN                 GONZALEZ                 ANTONIO                  M00000000          031N
0820230510504200003002801JAVIER                   LOPEZ                    JIMENEZ                  M00000000          032S
0820230510504200003002801JOSE CARLOS              ESCRIBANO                GONZALEZ                 M00000000          023N
0820230510504400000610404FRUTOS                   BLANCO                   SANCHEZ                  M00000000          115S
0820230510504400000610404JOSE ANTONIO             JIMENEZ                  DIAZ                     M00000000          108S
0820230510504400000610404LORENZO                  ALBARRAN                 NIETO                    M00000000          106S
0820230510504400000610404TOMAS                    GOMEZ                    LOPEZ                    M00000000          090S
0820230510504400003000200FRANCISCO                FERNANDEZ                CORTE                    M00000000          002N
0820230510504400003000200JORGE                    GONZALEZ                 CAMBLOR                  M00000000          004N
0820230510504400003000200JOSE MARIA               SOLIS                    SUAREZ                   M00000000          001N
0820230510504400003000200SALIMA                   COTO                     GARCIA                   F00000000          000N
0820230510504400003000200TERESITA DEL NIÑO JESUS  PELAEZ                   VEGA                     F00000000          004N
0820230510504400032200800GONZALA                  ALBARRAN                 SERRANO                  F00000000          017N
0820230510504400032200800JOSE JAVIER              MARTIN                   REINOSO                  M00000000          009N
0820230510504400032200800MARIA JOSE               SANCHEZ                  MARTIN                   F00000000          004N
0820230510504400032200800MARTA                    PINDADO                  GONZALEZ                 F00000000          004N
0820230510504400032604701CARLOS                   MORENO                   GAMARRA                  M00000000          027N
0820230510504400032604701DIONISIO                 DÉVORA                   MORENO                   M00000000          042N
0820230510504400032604701MARIA CONCEPCION         HERNANDEZ                HERNANDEZ                F00000000          043N
0820230510504400032604701MARIA JOSE               BARROSO                  GONZALEZ                 F00000000          019N
0820230510504400032604701MARIA TERESA             GARCIA                   VICENTE                  F00000000          057S
0820230510505100000607404FRANCISCO JAVIER         LOPEZ                    DE ABAJO                 M00000000          081S
0820230510505100000607404JOSEFA                   PEREZ                    GARCIA                   F00000000          079S
0820230510505100000607404MARIA PILAR              LOPEZ                    LOPEZ                    F00000000          058S
0820230510505100000607404RAUL                     GONZALEZ                 GARCIA                   M00000000          078S
0820230510505100003005600CARLOS                   GONZALEZ                 GONZALEZ                 M00000000          056N
0820230510505100032205301JAIME                    ESCUDERO                 VAQUERO                  M00000000          048N
0820230510505100032205301JESUS                    FERNANDEZ                BLAZQUEZ                 M00000000          059S
0820230510506000000605204ADRIAN                   MARTIN                   PEREZ                    M00000000          049S
0820230510506000000605204FERNANDO                 REVILLA                  MORENO                   M00000000          041S
0820230510506000000605204LUIS ALBERTO             MARTIN                   GARCIA                   M00000000          061S
0820230510506000000605204MANUEL                   GUTIERREZ                GONZALEZ                 M00000000          059S
0820230510506000003001901JESUS                    NIETO                    PAJARES                  M00000000          012N
0820230510506000003001901MARIA JOSE               NIÑO                     HARO                     F00000000          015N
0820230510506000003001901MOISES                   RODRIGUEZ                MARTIN                   M00000000          030S
0820230510506000032200800MARCOS                   VÁZQUEZ                  CASTAÑÓN                 M00000000          008N
0820230510506200000607804CESAR                    MARTIN                   AVALOS                   M00000000          085S
0820230510506200000607804ISABEL                   JIMENEZ                  DE LA IGLESIA            F00000000          088S
0820230510506200000607804JUAN CARLOS              MARTIN                   NUÑEZ                    M00000000          076S
0820230510506200000607804Mª DEL ROSARIO           GUTIERREZ                ALONSO                   F00000000          066S
0820230510506200003000700LINDA ROSA               IZQUIERDO                ROJO                     F00000000          007N
0820230510506200032204601ALEJANDRO                MARTÍN                   PÉREZ                    M00000000          037N
0820230510506200032204601CYNTHIA                  ENRÍQUEZ                 SÁNCHEZ                  F00000000          045N
0820230510506200032204601TEÓFILO                  SÁEZ                     GUTIÉRREZ                M00000000          056S
0820230510506400000603503IVAN                     GONZALEZ                 SANTAMARIA               M00000000          036S
0820230510506400000603503JUAN JOSE                JIMENEZ                  DEL DEDO                 M00000000          037S
0820230510506400000603503RUBEN                    GUTIERREZ                MARTIN                   M00000000          035S
0820230510506400000603503RUBEN                    LOPEZ                    VELAZQUEZ                M00000000          033N
0820230510506400000700400JUAN MANUEL              LOPEZ                    MARTIN                   M00000000          007N
0820230510506400000700400MARIA JESUS RESURRECCION SAN FRUTOS               SAN ANTOLIN              F00000000          002N
0820230510506400003000700JULIAN                   DIAZ                     LLORENTE                 M00000000          007N
0820230510506400032200000SONIA                    ÁLVAREZ                  SANTOS                   F00000000          000N
0820230510506400033203702DIEGO                    LOPEZ                    LOPEZ                    M00000000          037S
0820230510506400033203702GABRIEL                  MARTIN                   VIZCAINO                 M00000000          034N
0820230510506400033203702MARCOS                   GUERRA                   MARTIN                   M00000000          040S
0820230510507200000603603AITOR                    ARREGUI                  ECHARTE                  M00000000          037S
0820230510507200000603603AMELIA TERESA            TINAQUERO                DE LA INSUA              F00000000          036S
0820230510507200000603603Mª SAGRARIO              CUENCA                   TRISTAN                  F00000000          033N
0820230510507200000603603SORAYA                   ESUN                     GONZALEZ                 F00000000          038S
0820230510507200003003302DAVID                    GONZALO                  HERNANDEZ                M00000000          031N
0820230510507200003003302DIEGO                    CUENCA                   MARTIN                   M00000000          034S
0820230510507200003003302JUAN JOSE                CHAMORRO                 MAÑAS                    M00000000          034S
0820230510507200032202300MARIA DEL PILAR          SOMOZA                   ORTEGA                   F00000000          023N
0820230510507500000603803FRANCISCO                JARO                     FERNANDEZ                M00000000          037S
0820230510507500000603803JOSE LUIS                RODRIGUEZ                DE LA MATA               M00000000          039S
0820230510507500000603803MARIA ROSARIO            JARO                     FERNANDEZ                F00000000          038S
0820230510507500003002601ANA MARIA                SERRANO                  ROMERO                   F00000000          018N
0820230510507500003002601MARIA DE LAS MERCEDES    ORTIZ                    ROMO                     F00000000          025N
0820230510507500003002601MARIA ISABEL             GOMEZ                    DE LA FUENTE             F00000000          034S
0820230510507500003002601MARIA YOLANDA            GIL                      CORROCHANO               F00000000          028N
0820230510507500032203401MARIA SONSOLES           IZQUIERDO                MUÑOZ                    F00000000          034S
0820230510507700000607404Mª DE LOS ANGELES        SANCHEZ                  GARCIA                   F00000000          071S
0820230510507700000607404Mª DEL PILAR             HERRERA                  PEREZ                    F00000000          078S
0820230510507700000607404Mª JESÚS                 JIMÉNEZ                  MAROTO                   F00000000          075S
0820230510507700000607404RICARDO                  BLAS                     ANTONIO                  M00000000          074S
0820230510507700000703201ALBERTO                  DE JUAN                  LOPEZ                    M00000000          023N
0820230510507700000703201ALBERTO                  LOPEZ                    GONZALEZ                 M00000000          045S
0820230510507700000703201LORENA                   MEDINA                   VARA                     F00000000          002N
0820230510507700000703201MARCELINO JAVIER         JIMENEZ                  LOPEZ                    M00000000          025N
0820230510507700000703201RUBEN                    LOPEZ                    AYUSO                    M00000000          034N
0820230510507700003001500JESUS MARIA              AYUSO                    MUÑOZ                    M00000000          013N
0820230510507700003001500JESUS                    PORTERO                  JIMENEZ                  M00000000          012N
0820230510507700003001500NICOLAS                  LOPEZ                    LOPEZ                    M00000000          018N
0820230510507700003001500RUBEN                    AYUSO                    DIEZ                     M00000000          018N
0820230510507700032200400SANDRA                   RODRIGUEZ                DEGANO                   F00000000          004N
0820230510508300000605604FRANCISCO                LOPEZ                    DEL POZO                 M00000000          059S
0820230510508300000605604JOSE MARIO               VELAYOS                  DEL POZO                 M00000000          052S
0820230510508300000605604OSCAR                    SAN SEGUNDO              GARCIA                   M00000000          060S
0820230510508300000605604PEDRO JOSE               JIMENEZ                  GARCIA                   M00000000          056S
0820230510508300003001501ELISEO                   JIMENEZ                  VELAYOS                  M00000000          016S
0820230510508300003001501MARIA DEL CARMEN         MONTERO                  MUÑOZ                    F00000000          015N
0820230510508300032201300JOSÉ IGNACIO             SAN SEGUNDO              RUIZ                     M00000000          013N
0820230510508700000605404FRANCISCO                PANIAGUA                 CASADO                   M00000000          051S
0820230510508700000605404MARIA VICTORIA           GONZALEZ                 GIL                      F00000000          056S
0820230510508700000605404MARIA YOLANDA            DE JUAN                  LOPEZ                    F00000000          071S
0820230510508700000605404MIRIAM                   JIMENEZ                  RODRIGUEZ                F00000000          041S
0820230510508700000701801FERNANDO                 DURAN                    DE JUAN                  M00000000          028S
0820230510508700000701801MARCELINO                FERNANDEZ                GALLEGO                  M00000000          009N
0820230510508700003000900ALFONSO                  DE JUAN                  MOYANO                   M00000000          009N
0820230510508700032201300ALBERTO                  POSE                     JIMÉNEZ                  M00000000          011N
0820230510508700032201300JOSE LUIS                MARTÍN                   MARTÍN                   M00000000          015N
0820230510509200000606104JAVIER                   GALLEGO                  ENRIQUEZ                 M00000000          051S
0820230510509200000606104JESUS                    GALLEGO                  LOPEZ                    M00000000          072S
0820230510509200000606104JUAN MANUEL              GARCIA                   ARROYO                   M00000000          064S
0820230510509200000606104SILVIA                   BARTOLOME                MARTINEZ                 F00000000          060S
0820230510509200003002201CARLOS                   BARTOLOME                MARTIN                   M00000000          022S
0820230510509200032201500ANA BELÉN                ALONSO                   RODRÍGUEZ                F00000000          015N
0820230510509400000605605FLORENTINO PEDRO         GUTIERREZ                SANCHEZ                  M00000000          047S
0820230510509400000605605GUSTAVO                  DIAZ                     SANCHEZ                  M00000000          056S
0820230510509400000605605JOSE ANGEL               DORADO                   HOLGADO                  M00000000          062S
0820230510509400000605605ROCIO                    SANCHEZ                  SANCHIDRIAN              F00000000          024S
0820230510509400000605605SERGIO                   GARCIA                   GARCIA                   M00000000          036S
0820230510509400003001800MARIA ANGELES            GAMO                     GONZALEZ                 F00000000          018N
0820230510509400032202900MARIA DOLORES            BLASCO                   CARRAL                   F00000000          029N
0820230510511200000603404FERNANDO                 MARTIN                   MARTIN                   M00000000          035S
0820230510511200000603404ISABEL                   ALONSO                   ALBI                     F00000000          035S
0820230510511200000603404JOSE LUIS                CRUZ                     HERNANDEZ                M00000000          037S
0820230510511200000603404MIGUEL                   MARTIN                   BECEDILLAS               M00000000          031S
0820230510511200000700300DAVID                    FERRER                   JIMENEZ                  M00000000          001N
0820230510511200000700300FELIX                    SEGOVIA                  GONZALEZ                 M00000000          001N
0820230510511200000700300JULIO                    GARCIA                   SANCHEZ                  M00000000          007N
0820230510511200003001000RAMON                    ALVAREZ                  VEGA                     M00000000          010N
0820230510511200032204101RAFAEL                   MAZO                     HERNANDEZ                M00000000          041S
0820230510511600000605503ANGEL                    LOPEZ                    HERNANDEZ                M00000000          056S
0820230510511600000605503JOSE MARIA               DE OBESO                 RODRIGUEZ                M00000000          062S
0820230510511600000605503SENEN                    ANTONA                   VAQUERO                  M00000000          048S
0820230510511600000703901CESAR                    SUTIL                    PEREZ                    M00000000          039S
0820230510511600003000500RICARDO                  BERLANGA                 ALMAGRO                  M00000000          005N
0820230510511600032202901ABEL                     LAZARO                   PELETEIRO                M00000000          027N
0820230510511600032202901MIGUEL ANGEL             JIMENEZ                  MARQUES                  M00000000          031S
0820230510511700000612305ENMANUEL                 RODRIGUEZ                VEGAS                    M00000000          094S
0820230510511700000612305GUSTAVO                  COLLADO                  MARTIN                   M00000000          124S
0820230510511700000612305JOSE ANTONIO             MARTIN                   ENRIQUEZ                 M00000000          075S
0820230510511700000612305RICARDO                  MARTIN                   HERNAEZ                  M00000000          113S
0820230510511700000612305VALERIO                  HERNANDEZ                MARTIN                   M00000000          087S
0820230510511700003000300ANA                      CARRILLO                 CALVO                    F00000000          003N
0820230510511700032203100JAIME                    AYUSO                    ALAGUERO                 M00000000          031N
0820230510512200000605504ABEL                     BLAZQUEZ                 MARTIN                   M00000000          052S
0820230510512200000605504IGNACIO                  SANCHEZ                  MARTIN                   M00000000          069S
0820230510512200000605504LORENZO                  HERNANDEZ                MUÑE                     M00000000          055S
0820230510512200000605504OSCAR                    MONGE                    MARTIN                   M00000000          045S
0820230510512200003002001MARIA CONCEPCION         ALMOHALLA                MARTIN                   F00000000          020S
0820230510512200032200600JOSE IGNACIO             VALBUENA                 GONZALEZ                 M00000000          006N
0820230510512300000604805EDUARDO                  BURGUILLO                VELAZQUEZ                M00000000          040S
0820230510512300000604805JOSE Mª                  CARRAL                   OYARZABAL                M00000000          058S
0820230510512300000604805JOSE MIGUEL              GALAN                    AREVALO                  M00000000          043S
0820230510512300000604805JUAN ANTONIO             MAROTO                   AYUSO                    M00000000          028S
0820230510512300000604805MARIA DEL PILAR          GALAN                    AREVALO                  F00000000          026S
0820230510512300003000300CLAUDIA                  LOPEZ                    CRUZ                     F00000000          003N
0820230510512300032200100MARIA DE LA CRUZ         DÍAZ                     PÉREZ                    F00000000          001N
0820230510512300033702400DAVID                    ARROYO                   JIMENEZ                  M00000000          023N
0820230510512300033702400MARIA INMACULADA         MANTECA                  JIMENEZ                  F00000000          025N
0820230510512900000603405ANA MARIA                GONZALEZ                 VAQUERO                  F00000000          033S
0820230510512900000603405ANA MARIA                SANCHEZ                  SANCHEZ                  F00000000          030S
0820230510512900000603405ANTONIO                  GOMEZ                    CALLE                    M00000000          015S
0820230510512900000603405SATURNINO                ALVAREZ                  GONZALEZ                 M00000000          029S
0820230510512900000603405TOMAS                    BAENA                    DE LA PARRA              M00000000          032S
0820230510512900003000200MARIO                    PERALES                  LICARION                 M00000000          002N
0820230510512900032201000MIGUEL ANGEL             LORENZO                  LAHORRA                  M00000000          010N
0820230510513000000603601BEATRIZ                  HERRAEZ                  GONZALEZ                 F00000000          036S
0820230510513000003004201IGNACIO                  MARTIN                   FERNANDEZ                M00000000          042S
0820230510513000032204001JOSE MARÍA               FERNÁNDEZ                MARTÍN                   M00000000          040S
0820230510513000033805102MARIA MILAGROS           GONZALEZ                 JIMENEZ                  F00000000          050S
0820230510513000033805102REBECA                   HERNANDEZ                FERNANDEZ                F00000000          053S
0820230510514000000603502CARLOS                   MUÑOZ                    CERNADA                  M00000000          026N
0820230510514000000603502CARMELO                  MARTIN                   MARTIN                   M00000000          042S
0820230510514000000603502IVAN                     GONZALEZ                 MARTIN                   M00000000          039S
0820230510514000000603502LUCIA                    RUIZ                     SANTODOMINGO             F00000000          033N
0820230510514000003002301JESSICA                  SOTO                     SANCHEZ                  F00000000          033S
0820230510514000003002301JONATAN                  GONZALEZ                 GONZALEZ                 M00000000          028N
0820230510514000003002301JUAN MANUEL              GONZALEZ                 MARTIN                   M00000000          022N
0820230510514000003002301MANUEL                   DEL OSO                  BLAZQUEZ                 M00000000          010N
0820230510514000032204002MERCEDES                 SOTO                     SÁNCHEZ                  F00000000          047S
0820230510514000032204002RICARDO                  NIETO                    VICENTE                  M00000000          033S
0820230510514100000604503ANGELICA                 VERDU                    SANCHEZ                  F00000000          034S
0820230510514100000604503JOSE ENRIQUE             GARCIA                   HERNANDEZ                M00000000          056S
0820230510514100000604503JOSE LUIS                HUETE                    MARTIN                   M00000000          047S
0820230510514100003003602MARIA CARMEN             MURILLO                  TOBAJAS                  F00000000          033S
0820230510514100003003602MARIA JOSEFA             HERNANDEZ                MONTERO                  F00000000          039S
0820230510514100032200700ÁNGEL                    JIMÉNEZ                  GONZÁLEZ                 M00000000          007N
0820230510514700000604804ENRIQUE                  LOPEZ                    RUIZ                     M00000000          047S
